:100000000C942A000C943F000C943F000C943F0089
:100010000C943F000C943F000C943F000C943F0064
:100020000C943F000C943F000C943F000C943F0054
:100030000C943F000C943F000C943F000C943F0044
:100040000C943F000C943F000C943F000C943F0034
:100050000C943F0011241FBECFE5D8E0DEBFCDBF1A
:1000600010E0A0E6B0E0E6EDF0E002C005900D92F1
:10007000AE36B107D9F70E945C000C9469000C946D
:10008000000087B3806B87BBBE98C49A089581E552
:100090008DB90895AC01C49820E006C0EFB9779BF4
:1000A000FECF8FB18BBB2F5FFA01E20FF11DE08114
:1000B000EE23A1F7C49A08958FEF8ABB0E944100F6
:1000C00081E58DB980E690E00E944A0080E090E0F2
:0600D0000895F894FFCF33
:0E00D60048656C6C6F207468657265210000CF
:00000001FF
